{
  "contracts/Aloria.sol": {
    "Aloria": {
      "abi": [
        {
          "anonymous": false,
          "inputs": [
            {
              "indexed": false,
              "internalType": "uint256",
              "name": "requestId",
              "type": "uint256"
            },
            {
              "indexed": false,
              "internalType": "string",
              "name": "task",
              "type": "string"
            },
            {
              "indexed": false,
              "internalType": "address",
              "name": "promptOwner",
              "type": "address"
            }
          ],
          "name": "RequestStarted",
          "type": "event"
        },
        {
          "anonymous": false,
          "inputs": [
            {
              "indexed": true,
              "internalType": "address",
              "name": "poster",
              "type": "address"
            },
            {
              "indexed": false,
              "internalType": "uint256",
              "name": "amount",
              "type": "uint256"
            }
          ],
          "name": "UnblockerBountyPosted",
          "type": "event"
        },
        {
          "inputs": [],
          "name": "postUnblockerBounty",
          "outputs": [],
          "stateMutability": "payable",
          "type": "function"
        },
        {
          "inputs": [
            {
              "internalType": "uint256",
              "name": "",
              "type": "uint256"
            }
          ],
          "name": "requests",
          "outputs": [
            {
              "internalType": "uint256",
              "name": "id",
              "type": "uint256"
            },
            {
              "internalType": "string",
              "name": "task",
              "type": "string"
            }
          ],
          "stateMutability": "view",
          "type": "function"
        },
        {
          "inputs": [
            {
              "internalType": "string",
              "name": "task",
              "type": "string"
            }
          ],
          "name": "startRequest",
          "outputs": [],
          "stateMutability": "payable",
          "type": "function"
        },
        {
          "inputs": [
            {
              "internalType": "string",
              "name": "task",
              "type": "string"
            },
            {
              "internalType": "address payable",
              "name": "promptOwner",
              "type": "address"
            }
          ],
          "name": "startRequestFromOwnedPrompt",
          "outputs": [],
          "stateMutability": "payable",
          "type": "function"
        },
        {
          "inputs": [
            {
              "internalType": "address",
              "name": "",
              "type": "address"
            }
          ],
          "name": "unblockerBountyByAddress",
          "outputs": [
            {
              "internalType": "uint256",
              "name": "",
              "type": "uint256"
            }
          ],
          "stateMutability": "view",
          "type": "function"
        }
      ],
      "evm": {
        "bytecode": {
          "linkReferences": {},
          "object": "6080604052348015600f57600080fd5b50610fbc8061001f6000396000f3fe60806040526004361061004a5760003560e01c806312c4a2691461004f57806313f3fb141461006b5780631ae5e977146100a857806335e8076b146100b257806381d12c58146100ce575b600080fd5b61006960048036038101906100649190610673565b61010c565b005b34801561007757600080fd5b50610092600480360381019061008d919061071a565b6101f9565b60405161009f9190610760565b60405180910390f35b6100b0610211565b005b6100cc60048036038101906100c791906107b9565b6102fa565b005b3480156100da57600080fd5b506100f560048036038101906100f09190610841565b61045d565b6040516101039291906108ed565b60405180910390f35b6001341461014f576040517f08c379a00000000000000000000000000000000000000000000000000000000081526004016101469061098f565b60405180910390fd5b600080805490509050600060405180604001604052808381526020018481525090806001815401808255809150506001900390600052602060002090600202016000909190919091506000820151816000015560208201518160010190816101b79190610bbb565b5050507f5d8149a8df95ce3b23015f8fe010eeceb59a417fc40c80bf2ee69c7c7085b6108183336040516101ed93929190610c9c565b60405180910390a15050565b60016020528060005260406000206000915090505481565b60003411610254576040517f08c379a000000000000000000000000000000000000000000000000000000000815260040161024b90610d4c565b60405180910390fd5b34600160003373ffffffffffffffffffffffffffffffffffffffff1673ffffffffffffffffffffffffffffffffffffffff16815260200190815260200160002060008282546102a39190610d9b565b925050819055503373ffffffffffffffffffffffffffffffffffffffff167f43cb449effa8b1b9629ddb484fc2b7ec5233e4f786fb765977b455ba972c8d22346040516102f09190610760565b60405180910390a2565b6002341461033d576040517f08c379a000000000000000000000000000000000000000000000000000000000815260040161033490610e41565b60405180910390fd5b8073ffffffffffffffffffffffffffffffffffffffff166108fc60019081150290604051600060405180830381858888f193505050506103b2576040517f08c379a00000000000000000000000000000000000000000000000000000000081526004016103a990610ed3565b60405180910390fd5b6000808054905090506000604051806040016040528083815260200185815250908060018154018082558091505060019003906000526020600020906002020160009091909190915060008201518160000155602082015181600101908161041a9190610bbb565b5050507f5d8149a8df95ce3b23015f8fe010eeceb59a417fc40c80bf2ee69c7c7085b61081848460405161045093929190610f48565b60405180910390a1505050565b6000818154811061046d57600080fd5b9060005260206000209060020201600091509050806000015490806001018054610496906109de565b80601f01602080910402602001604051908101604052809291908181526020018280546104c2906109de565b801561050f5780601f106104e45761010080835404028352916020019161050f565b820191906000526020600020905b8154815290600101906020018083116104f257829003601f168201915b5050505050905082565b6000604051905090565b600080fd5b600080fd5b600080fd5b600080fd5b6000601f19601f8301169050919050565b7f4e487b7100000000000000000000000000000000000000000000000000000000600052604160045260246000fd5b61058082610537565b810181811067ffffffffffffffff8211171561059f5761059e610548565b5b80604052505050565b60006105b2610519565b90506105be8282610577565b919050565b600067ffffffffffffffff8211156105de576105dd610548565b5b6105e782610537565b9050602081019050919050565b82818337600083830152505050565b6000610616610611846105c3565b6105a8565b90508281526020810184848401111561063257610631610532565b5b61063d8482856105f4565b509392505050565b600082601f83011261065a5761065961052d565b5b813561066a848260208601610603565b91505092915050565b60006020828403121561068957610688610523565b5b600082013567ffffffffffffffff8111156106a7576106a6610528565b5b6106b384828501610645565b91505092915050565b600073ffffffffffffffffffffffffffffffffffffffff82169050919050565b60006106e7826106bc565b9050919050565b6106f7816106dc565b811461070257600080fd5b50565b600081359050610714816106ee565b92915050565b6000602082840312156107305761072f610523565b5b600061073e84828501610705565b91505092915050565b6000819050919050565b61075a81610747565b82525050565b60006020820190506107756000830184610751565b92915050565b6000610786826106bc565b9050919050565b6107968161077b565b81146107a157600080fd5b50565b6000813590506107b38161078d565b92915050565b600080604083850312156107d0576107cf610523565b5b600083013567ffffffffffffffff8111156107ee576107ed610528565b5b6107fa85828601610645565b925050602061080b858286016107a4565b9150509250929050565b61081e81610747565b811461082957600080fd5b50565b60008135905061083b81610815565b92915050565b60006020828403121561085757610856610523565b5b60006108658482850161082c565b91505092915050565b600081519050919050565b600082825260208201905092915050565b60005b838110156108a857808201518184015260208101905061088d565b60008484015250505050565b60006108bf8261086e565b6108c98185610879565b93506108d981856020860161088a565b6108e281610537565b840191505092915050565b60006040820190506109026000830185610751565b818103602083015261091481846108b4565b90509392505050565b7f4d7573742073656e642031207361746f73686920746f2073746172742061207260008201527f6571756573740000000000000000000000000000000000000000000000000000602082015250565b6000610979602683610879565b91506109848261091d565b604082019050919050565b600060208201905081810360008301526109a88161096c565b9050919050565b7f4e487b7100000000000000000000000000000000000000000000000000000000600052602260045260246000fd5b600060028204905060018216806109f657607f821691505b602082108103610a0957610a086109af565b5b50919050565b60008190508160005260206000209050919050565b60006020601f8301049050919050565b600082821b905092915050565b600060088302610a717fffffffffffffffffffffffffffffffffffffffffffffffffffffffffffffffff82610a34565b610a7b8683610a34565b95508019841693508086168417925050509392505050565b6000819050919050565b6000610ab8610ab3610aae84610747565b610a93565b610747565b9050919050565b6000819050919050565b610ad283610a9d565b610ae6610ade82610abf565b848454610a41565b825550505050565b600090565b610afb610aee565b610b06818484610ac9565b505050565b5b81811015610b2a57610b1f600082610af3565b600181019050610b0c565b5050565b601f821115610b6f57610b4081610a0f565b610b4984610a24565b81016020851015610b58578190505b610b6c610b6485610a24565b830182610b0b565b50505b505050565b600082821c905092915050565b6000610b9260001984600802610b74565b1980831691505092915050565b6000610bab8383610b81565b9150826002028217905092915050565b610bc48261086e565b67ffffffffffffffff811115610bdd57610bdc610548565b5b610be782546109de565b610bf2828285610b2e565b600060209050601f831160018114610c255760008415610c13578287015190505b610c1d8582610b9f565b865550610c85565b601f198416610c3386610a0f565b60005b82811015610c5b57848901518255600182019150602085019450602081019050610c36565b86831015610c785784890151610c74601f891682610b81565b8355505b6001600288020188555050505b505050505050565b610c96816106dc565b82525050565b6000606082019050610cb16000830186610751565b8181036020830152610cc381856108b4565b9050610cd26040830184610c8d565b949350505050565b7f426f756e747920616d6f756e74206d757374206265206772656174657220746860008201527f616e203000000000000000000000000000000000000000000000000000000000602082015250565b6000610d36602483610879565b9150610d4182610cda565b604082019050919050565b60006020820190508181036000830152610d6581610d29565b9050919050565b7f4e487b7100000000000000000000000000000000000000000000000000000000600052601160045260246000fd5b6000610da682610747565b9150610db183610747565b9250828201905080821115610dc957610dc8610d6c565b5b92915050565b7f4d7573742073656e642032207361746f7368697320746f20737461727420612060008201527f72657175657374207769746820616e206f776e65642070726f6d707400000000602082015250565b6000610e2b603c83610879565b9150610e3682610dcf565b604082019050919050565b60006020820190508181036000830152610e5a81610e1e565b9050919050565b7f4661696c656420746f2073656e642031207361746f73686920746f207468652060008201527f70726f6d7074206f776e65720000000000000000000000000000000000000000602082015250565b6000610ebd602c83610879565b9150610ec882610e61565b604082019050919050565b60006020820190508181036000830152610eec81610eb0565b9050919050565b6000610f0e610f09610f04846106bc565b610a93565b6106bc565b9050919050565b6000610f2082610ef3565b9050919050565b6000610f3282610f15565b9050919050565b610f4281610f27565b82525050565b6000606082019050610f5d6000830186610751565b8181036020830152610f6f81856108b4565b9050610f7e6040830184610f39565b94935050505056fea26469706673582212201b31f9948ef04aa990f10ad0edfd9e1475e3ca1e1b126bb5f548b7cb01d6e19a64736f6c634300081b0033",
          "opcodes": "PUSH1 0x80 PUSH1 0x40 MSTORE CALLVALUE DUP1 ISZERO PUSH1 0xF JUMPI PUSH1 0x0 DUP1 REVERT JUMPDEST POP PUSH2 0xFBC DUP1 PUSH2 0x1F PUSH1 0x0 CODECOPY PUSH1 0x0 RETURN INVALID PUSH1 0x80 PUSH1 0x40 MSTORE PUSH1 0x4 CALLDATASIZE LT PUSH2 0x4A JUMPI PUSH1 0x0 CALLDATALOAD PUSH1 0xE0 SHR DUP1 PUSH4 0x12C4A269 EQ PUSH2 0x4F JUMPI DUP1 PUSH4 0x13F3FB14 EQ PUSH2 0x6B JUMPI DUP1 PUSH4 0x1AE5E977 EQ PUSH2 0xA8 JUMPI DUP1 PUSH4 0x35E8076B EQ PUSH2 0xB2 JUMPI DUP1 PUSH4 0x81D12C58 EQ PUSH2 0xCE JUMPI JUMPDEST PUSH1 0x0 DUP1 REVERT JUMPDEST PUSH2 0x69 PUSH1 0x4 DUP1 CALLDATASIZE SUB DUP2 ADD SWAP1 PUSH2 0x64 SWAP2 SWAP1 PUSH2 0x673 JUMP JUMPDEST PUSH2 0x10C JUMP JUMPDEST STOP JUMPDEST CALLVALUE DUP1 ISZERO PUSH2 0x77 JUMPI PUSH1 0x0 DUP1 REVERT JUMPDEST POP PUSH2 0x92 PUSH1 0x4 DUP1 CALLDATASIZE SUB DUP2 ADD SWAP1 PUSH2 0x8D SWAP2 SWAP1 PUSH2 0x71A JUMP JUMPDEST PUSH2 0x1F9 JUMP JUMPDEST PUSH1 0x40 MLOAD PUSH2 0x9F SWAP2 SWAP1 PUSH2 0x760 JUMP JUMPDEST PUSH1 0x40 MLOAD DUP1 SWAP2 SUB SWAP1 RETURN JUMPDEST PUSH2 0xB0 PUSH2 0x211 JUMP JUMPDEST STOP JUMPDEST PUSH2 0xCC PUSH1 0x4 DUP1 CALLDATASIZE SUB DUP2 ADD SWAP1 PUSH2 0xC7 SWAP2 SWAP1 PUSH2 0x7B9 JUMP JUMPDEST PUSH2 0x2FA JUMP JUMPDEST STOP JUMPDEST CALLVALUE DUP1 ISZERO PUSH2 0xDA JUMPI PUSH1 0x0 DUP1 REVERT JUMPDEST POP PUSH2 0xF5 PUSH1 0x4 DUP1 CALLDATASIZE SUB DUP2 ADD SWAP1 PUSH2 0xF0 SWAP2 SWAP1 PUSH2 0x841 JUMP JUMPDEST PUSH2 0x45D JUMP JUMPDEST PUSH1 0x40 MLOAD PUSH2 0x103 SWAP3 SWAP2 SWAP1 PUSH2 0x8ED JUMP JUMPDEST PUSH1 0x40 MLOAD DUP1 SWAP2 SUB SWAP1 RETURN JUMPDEST PUSH1 0x1 CALLVALUE EQ PUSH2 0x14F JUMPI PUSH1 0x40 MLOAD PUSH32 0x8C379A000000000000000000000000000000000000000000000000000000000 DUP2 MSTORE PUSH1 0x4 ADD PUSH2 0x146 SWAP1 PUSH2 0x98F JUMP JUMPDEST PUSH1 0x40 MLOAD DUP1 SWAP2 SUB SWAP1 REVERT JUMPDEST PUSH1 0x0 DUP1 DUP1 SLOAD SWAP1 POP SWAP1 POP PUSH1 0x0 PUSH1 0x40 MLOAD DUP1 PUSH1 0x40 ADD PUSH1 0x40 MSTORE DUP1 DUP4 DUP2 MSTORE PUSH1 0x20 ADD DUP5 DUP2 MSTORE POP SWAP1 DUP1 PUSH1 0x1 DUP2 SLOAD ADD DUP1 DUP3 SSTORE DUP1 SWAP2 POP POP PUSH1 0x1 SWAP1 SUB SWAP1 PUSH1 0x0 MSTORE PUSH1 0x20 PUSH1 0x0 KECCAK256 SWAP1 PUSH1 0x2 MUL ADD PUSH1 0x0 SWAP1 SWAP2 SWAP1 SWAP2 SWAP1 SWAP2 POP PUSH1 0x0 DUP3 ADD MLOAD DUP2 PUSH1 0x0 ADD SSTORE PUSH1 0x20 DUP3 ADD MLOAD DUP2 PUSH1 0x1 ADD SWAP1 DUP2 PUSH2 0x1B7 SWAP2 SWAP1 PUSH2 0xBBB JUMP JUMPDEST POP POP POP PUSH32 0x5D8149A8DF95CE3B23015F8FE010EECEB59A417FC40C80BF2EE69C7C7085B610 DUP2 DUP4 CALLER PUSH1 0x40 MLOAD PUSH2 0x1ED SWAP4 SWAP3 SWAP2 SWAP1 PUSH2 0xC9C JUMP JUMPDEST PUSH1 0x40 MLOAD DUP1 SWAP2 SUB SWAP1 LOG1 POP POP JUMP JUMPDEST PUSH1 0x1 PUSH1 0x20 MSTORE DUP1 PUSH1 0x0 MSTORE PUSH1 0x40 PUSH1 0x0 KECCAK256 PUSH1 0x0 SWAP2 POP SWAP1 POP SLOAD DUP2 JUMP JUMPDEST PUSH1 0x0 CALLVALUE GT PUSH2 0x254 JUMPI PUSH1 0x40 MLOAD PUSH32 0x8C379A000000000000000000000000000000000000000000000000000000000 DUP2 MSTORE PUSH1 0x4 ADD PUSH2 0x24B SWAP1 PUSH2 0xD4C JUMP JUMPDEST PUSH1 0x40 MLOAD DUP1 SWAP2 SUB SWAP1 REVERT JUMPDEST CALLVALUE PUSH1 0x1 PUSH1 0x0 CALLER PUSH20 0xFFFFFFFFFFFFFFFFFFFFFFFFFFFFFFFFFFFFFFFF AND PUSH20 0xFFFFFFFFFFFFFFFFFFFFFFFFFFFFFFFFFFFFFFFF AND DUP2 MSTORE PUSH1 0x20 ADD SWAP1 DUP2 MSTORE PUSH1 0x20 ADD PUSH1 0x0 KECCAK256 PUSH1 0x0 DUP3 DUP3 SLOAD PUSH2 0x2A3 SWAP2 SWAP1 PUSH2 0xD9B JUMP JUMPDEST SWAP3 POP POP DUP2 SWAP1 SSTORE POP CALLER PUSH20 0xFFFFFFFFFFFFFFFFFFFFFFFFFFFFFFFFFFFFFFFF AND PUSH32 0x43CB449EFFA8B1B9629DDB484FC2B7EC5233E4F786FB765977B455BA972C8D22 CALLVALUE PUSH1 0x40 MLOAD PUSH2 0x2F0 SWAP2 SWAP1 PUSH2 0x760 JUMP JUMPDEST PUSH1 0x40 MLOAD DUP1 SWAP2 SUB SWAP1 LOG2 JUMP JUMPDEST PUSH1 0x2 CALLVALUE EQ PUSH2 0x33D JUMPI PUSH1 0x40 MLOAD PUSH32 0x8C379A000000000000000000000000000000000000000000000000000000000 DUP2 MSTORE PUSH1 0x4 ADD PUSH2 0x334 SWAP1 PUSH2 0xE41 JUMP JUMPDEST PUSH1 0x40 MLOAD DUP1 SWAP2 SUB SWAP1 REVERT JUMPDEST DUP1 PUSH20 0xFFFFFFFFFFFFFFFFFFFFFFFFFFFFFFFFFFFFFFFF AND PUSH2 0x8FC PUSH1 0x1 SWAP1 DUP2 ISZERO MUL SWAP1 PUSH1 0x40 MLOAD PUSH1 0x0 PUSH1 0x40 MLOAD DUP1 DUP4 SUB DUP2 DUP6 DUP9 DUP9 CALL SWAP4 POP POP POP POP PUSH2 0x3B2 JUMPI PUSH1 0x40 MLOAD PUSH32 0x8C379A000000000000000000000000000000000000000000000000000000000 DUP2 MSTORE PUSH1 0x4 ADD PUSH2 0x3A9 SWAP1 PUSH2 0xED3 JUMP JUMPDEST PUSH1 0x40 MLOAD DUP1 SWAP2 SUB SWAP1 REVERT JUMPDEST PUSH1 0x0 DUP1 DUP1 SLOAD SWAP1 POP SWAP1 POP PUSH1 0x0 PUSH1 0x40 MLOAD DUP1 PUSH1 0x40 ADD PUSH1 0x40 MSTORE DUP1 DUP4 DUP2 MSTORE PUSH1 0x20 ADD DUP6 DUP2 MSTORE POP SWAP1 DUP1 PUSH1 0x1 DUP2 SLOAD ADD DUP1 DUP3 SSTORE DUP1 SWAP2 POP POP PUSH1 0x1 SWAP1 SUB SWAP1 PUSH1 0x0 MSTORE PUSH1 0x20 PUSH1 0x0 KECCAK256 SWAP1 PUSH1 0x2 MUL ADD PUSH1 0x0 SWAP1 SWAP2 SWAP1 SWAP2 SWAP1 SWAP2 POP PUSH1 0x0 DUP3 ADD MLOAD DUP2 PUSH1 0x0 ADD SSTORE PUSH1 0x20 DUP3 ADD MLOAD DUP2 PUSH1 0x1 ADD SWAP1 DUP2 PUSH2 0x41A SWAP2 SWAP1 PUSH2 0xBBB JUMP JUMPDEST POP POP POP PUSH32 0x5D8149A8DF95CE3B23015F8FE010EECEB59A417FC40C80BF2EE69C7C7085B610 DUP2 DUP5 DUP5 PUSH1 0x40 MLOAD PUSH2 0x450 SWAP4 SWAP3 SWAP2 SWAP1 PUSH2 0xF48 JUMP JUMPDEST PUSH1 0x40 MLOAD DUP1 SWAP2 SUB SWAP1 LOG1 POP POP POP JUMP JUMPDEST PUSH1 0x0 DUP2 DUP2 SLOAD DUP2 LT PUSH2 0x46D JUMPI PUSH1 0x0 DUP1 REVERT JUMPDEST SWAP1 PUSH1 0x0 MSTORE PUSH1 0x20 PUSH1 0x0 KECCAK256 SWAP1 PUSH1 0x2 MUL ADD PUSH1 0x0 SWAP2 POP SWAP1 POP DUP1 PUSH1 0x0 ADD SLOAD SWAP1 DUP1 PUSH1 0x1 ADD DUP1 SLOAD PUSH2 0x496 SWAP1 PUSH2 0x9DE JUMP JUMPDEST DUP1 PUSH1 0x1F ADD PUSH1 0x20 DUP1 SWAP2 DIV MUL PUSH1 0x20 ADD PUSH1 0x40 MLOAD SWAP1 DUP2 ADD PUSH1 0x40 MSTORE DUP1 SWAP3 SWAP2 SWAP1 DUP2 DUP2 MSTORE PUSH1 0x20 ADD DUP3 DUP1 SLOAD PUSH2 0x4C2 SWAP1 PUSH2 0x9DE JUMP JUMPDEST DUP1 ISZERO PUSH2 0x50F JUMPI DUP1 PUSH1 0x1F LT PUSH2 0x4E4 JUMPI PUSH2 0x100 DUP1 DUP4 SLOAD DIV MUL DUP4 MSTORE SWAP2 PUSH1 0x20 ADD SWAP2 PUSH2 0x50F JUMP JUMPDEST DUP3 ADD SWAP2 SWAP1 PUSH1 0x0 MSTORE PUSH1 0x20 PUSH1 0x0 KECCAK256 SWAP1 JUMPDEST DUP2 SLOAD DUP2 MSTORE SWAP1 PUSH1 0x1 ADD SWAP1 PUSH1 0x20 ADD DUP1 DUP4 GT PUSH2 0x4F2 JUMPI DUP3 SWAP1 SUB PUSH1 0x1F AND DUP3 ADD SWAP2 JUMPDEST POP POP POP POP POP SWAP1 POP DUP3 JUMP JUMPDEST PUSH1 0x0 PUSH1 0x40 MLOAD SWAP1 POP SWAP1 JUMP JUMPDEST PUSH1 0x0 DUP1 REVERT JUMPDEST PUSH1 0x0 DUP1 REVERT JUMPDEST PUSH1 0x0 DUP1 REVERT JUMPDEST PUSH1 0x0 DUP1 REVERT JUMPDEST PUSH1 0x0 PUSH1 0x1F NOT PUSH1 0x1F DUP4 ADD AND SWAP1 POP SWAP2 SWAP1 POP JUMP JUMPDEST PUSH32 0x4E487B7100000000000000000000000000000000000000000000000000000000 PUSH1 0x0 MSTORE PUSH1 0x41 PUSH1 0x4 MSTORE PUSH1 0x24 PUSH1 0x0 REVERT JUMPDEST PUSH2 0x580 DUP3 PUSH2 0x537 JUMP JUMPDEST DUP2 ADD DUP2 DUP2 LT PUSH8 0xFFFFFFFFFFFFFFFF DUP3 GT OR ISZERO PUSH2 0x59F JUMPI PUSH2 0x59E PUSH2 0x548 JUMP JUMPDEST JUMPDEST DUP1 PUSH1 0x40 MSTORE POP POP POP JUMP JUMPDEST PUSH1 0x0 PUSH2 0x5B2 PUSH2 0x519 JUMP JUMPDEST SWAP1 POP PUSH2 0x5BE DUP3 DUP3 PUSH2 0x577 JUMP JUMPDEST SWAP2 SWAP1 POP JUMP JUMPDEST PUSH1 0x0 PUSH8 0xFFFFFFFFFFFFFFFF DUP3 GT ISZERO PUSH2 0x5DE JUMPI PUSH2 0x5DD PUSH2 0x548 JUMP JUMPDEST JUMPDEST PUSH2 0x5E7 DUP3 PUSH2 0x537 JUMP JUMPDEST SWAP1 POP PUSH1 0x20 DUP2 ADD SWAP1 POP SWAP2 SWAP1 POP JUMP JUMPDEST DUP3 DUP2 DUP4 CALLDATACOPY PUSH1 0x0 DUP4 DUP4 ADD MSTORE POP POP POP JUMP JUMPDEST PUSH1 0x0 PUSH2 0x616 PUSH2 0x611 DUP5 PUSH2 0x5C3 JUMP JUMPDEST PUSH2 0x5A8 JUMP JUMPDEST SWAP1 POP DUP3 DUP2 MSTORE PUSH1 0x20 DUP2 ADD DUP5 DUP5 DUP5 ADD GT ISZERO PUSH2 0x632 JUMPI PUSH2 0x631 PUSH2 0x532 JUMP JUMPDEST JUMPDEST PUSH2 0x63D DUP5 DUP3 DUP6 PUSH2 0x5F4 JUMP JUMPDEST POP SWAP4 SWAP3 POP POP POP JUMP JUMPDEST PUSH1 0x0 DUP3 PUSH1 0x1F DUP4 ADD SLT PUSH2 0x65A JUMPI PUSH2 0x659 PUSH2 0x52D JUMP JUMPDEST JUMPDEST DUP2 CALLDATALOAD PUSH2 0x66A DUP5 DUP3 PUSH1 0x20 DUP7 ADD PUSH2 0x603 JUMP JUMPDEST SWAP2 POP POP SWAP3 SWAP2 POP POP JUMP JUMPDEST PUSH1 0x0 PUSH1 0x20 DUP3 DUP5 SUB SLT ISZERO PUSH2 0x689 JUMPI PUSH2 0x688 PUSH2 0x523 JUMP JUMPDEST JUMPDEST PUSH1 0x0 DUP3 ADD CALLDATALOAD PUSH8 0xFFFFFFFFFFFFFFFF DUP2 GT ISZERO PUSH2 0x6A7 JUMPI PUSH2 0x6A6 PUSH2 0x528 JUMP JUMPDEST JUMPDEST PUSH2 0x6B3 DUP5 DUP3 DUP6 ADD PUSH2 0x645 JUMP JUMPDEST SWAP2 POP POP SWAP3 SWAP2 POP POP JUMP JUMPDEST PUSH1 0x0 PUSH20 0xFFFFFFFFFFFFFFFFFFFFFFFFFFFFFFFFFFFFFFFF DUP3 AND SWAP1 POP SWAP2 SWAP1 POP JUMP JUMPDEST PUSH1 0x0 PUSH2 0x6E7 DUP3 PUSH2 0x6BC JUMP JUMPDEST SWAP1 POP SWAP2 SWAP1 POP JUMP JUMPDEST PUSH2 0x6F7 DUP2 PUSH2 0x6DC JUMP JUMPDEST DUP2 EQ PUSH2 0x702 JUMPI PUSH1 0x0 DUP1 REVERT JUMPDEST POP JUMP JUMPDEST PUSH1 0x0 DUP2 CALLDATALOAD SWAP1 POP PUSH2 0x714 DUP2 PUSH2 0x6EE JUMP JUMPDEST SWAP3 SWAP2 POP POP JUMP JUMPDEST PUSH1 0x0 PUSH1 0x20 DUP3 DUP5 SUB SLT ISZERO PUSH2 0x730 JUMPI PUSH2 0x72F PUSH2 0x523 JUMP JUMPDEST JUMPDEST PUSH1 0x0 PUSH2 0x73E DUP5 DUP3 DUP6 ADD PUSH2 0x705 JUMP JUMPDEST SWAP2 POP POP SWAP3 SWAP2 POP POP JUMP JUMPDEST PUSH1 0x0 DUP2 SWAP1 POP SWAP2 SWAP1 POP JUMP JUMPDEST PUSH2 0x75A DUP2 PUSH2 0x747 JUMP JUMPDEST DUP3 MSTORE POP POP JUMP JUMPDEST PUSH1 0x0 PUSH1 0x20 DUP3 ADD SWAP1 POP PUSH2 0x775 PUSH1 0x0 DUP4 ADD DUP5 PUSH2 0x751 JUMP JUMPDEST SWAP3 SWAP2 POP POP JUMP JUMPDEST PUSH1 0x0 PUSH2 0x786 DUP3 PUSH2 0x6BC JUMP JUMPDEST SWAP1 POP SWAP2 SWAP1 POP JUMP JUMPDEST PUSH2 0x796 DUP2 PUSH2 0x77B JUMP JUMPDEST DUP2 EQ PUSH2 0x7A1 JUMPI PUSH1 0x0 DUP1 REVERT JUMPDEST POP JUMP JUMPDEST PUSH1 0x0 DUP2 CALLDATALOAD SWAP1 POP PUSH2 0x7B3 DUP2 PUSH2 0x78D JUMP JUMPDEST SWAP3 SWAP2 POP POP JUMP JUMPDEST PUSH1 0x0 DUP1 PUSH1 0x40 DUP4 DUP6 SUB SLT ISZERO PUSH2 0x7D0 JUMPI PUSH2 0x7CF PUSH2 0x523 JUMP JUMPDEST JUMPDEST PUSH1 0x0 DUP4 ADD CALLDATALOAD PUSH8 0xFFFFFFFFFFFFFFFF DUP2 GT ISZERO PUSH2 0x7EE JUMPI PUSH2 0x7ED PUSH2 0x528 JUMP JUMPDEST JUMPDEST PUSH2 0x7FA DUP6 DUP3 DUP7 ADD PUSH2 0x645 JUMP JUMPDEST SWAP3 POP POP PUSH1 0x20 PUSH2 0x80B DUP6 DUP3 DUP7 ADD PUSH2 0x7A4 JUMP JUMPDEST SWAP2 POP POP SWAP3 POP SWAP3 SWAP1 POP JUMP JUMPDEST PUSH2 0x81E DUP2 PUSH2 0x747 JUMP JUMPDEST DUP2 EQ PUSH2 0x829 JUMPI PUSH1 0x0 DUP1 REVERT JUMPDEST POP JUMP JUMPDEST PUSH1 0x0 DUP2 CALLDATALOAD SWAP1 POP PUSH2 0x83B DUP2 PUSH2 0x815 JUMP JUMPDEST SWAP3 SWAP2 POP POP JUMP JUMPDEST PUSH1 0x0 PUSH1 0x20 DUP3 DUP5 SUB SLT ISZERO PUSH2 0x857 JUMPI PUSH2 0x856 PUSH2 0x523 JUMP JUMPDEST JUMPDEST PUSH1 0x0 PUSH2 0x865 DUP5 DUP3 DUP6 ADD PUSH2 0x82C JUMP JUMPDEST SWAP2 POP POP SWAP3 SWAP2 POP POP JUMP JUMPDEST PUSH1 0x0 DUP2 MLOAD SWAP1 POP SWAP2 SWAP1 POP JUMP JUMPDEST PUSH1 0x0 DUP3 DUP3 MSTORE PUSH1 0x20 DUP3 ADD SWAP1 POP SWAP3 SWAP2 POP POP JUMP JUMPDEST PUSH1 0x0 JUMPDEST DUP4 DUP2 LT ISZERO PUSH2 0x8A8 JUMPI DUP1 DUP3 ADD MLOAD DUP2 DUP5 ADD MSTORE PUSH1 0x20 DUP2 ADD SWAP1 POP PUSH2 0x88D JUMP JUMPDEST PUSH1 0x0 DUP5 DUP5 ADD MSTORE POP POP POP POP JUMP JUMPDEST PUSH1 0x0 PUSH2 0x8BF DUP3 PUSH2 0x86E JUMP JUMPDEST PUSH2 0x8C9 DUP2 DUP6 PUSH2 0x879 JUMP JUMPDEST SWAP4 POP PUSH2 0x8D9 DUP2 DUP6 PUSH1 0x20 DUP7 ADD PUSH2 0x88A JUMP JUMPDEST PUSH2 0x8E2 DUP2 PUSH2 0x537 JUMP JUMPDEST DUP5 ADD SWAP2 POP POP SWAP3 SWAP2 POP POP JUMP JUMPDEST PUSH1 0x0 PUSH1 0x40 DUP3 ADD SWAP1 POP PUSH2 0x902 PUSH1 0x0 DUP4 ADD DUP6 PUSH2 0x751 JUMP JUMPDEST DUP2 DUP2 SUB PUSH1 0x20 DUP4 ADD MSTORE PUSH2 0x914 DUP2 DUP5 PUSH2 0x8B4 JUMP JUMPDEST SWAP1 POP SWAP4 SWAP3 POP POP POP JUMP JUMPDEST PUSH32 0x4D7573742073656E642031207361746F73686920746F20737461727420612072 PUSH1 0x0 DUP3 ADD MSTORE PUSH32 0x6571756573740000000000000000000000000000000000000000000000000000 PUSH1 0x20 DUP3 ADD MSTORE POP JUMP JUMPDEST PUSH1 0x0 PUSH2 0x979 PUSH1 0x26 DUP4 PUSH2 0x879 JUMP JUMPDEST SWAP2 POP PUSH2 0x984 DUP3 PUSH2 0x91D JUMP JUMPDEST PUSH1 0x40 DUP3 ADD SWAP1 POP SWAP2 SWAP1 POP JUMP JUMPDEST PUSH1 0x0 PUSH1 0x20 DUP3 ADD SWAP1 POP DUP2 DUP2 SUB PUSH1 0x0 DUP4 ADD MSTORE PUSH2 0x9A8 DUP2 PUSH2 0x96C JUMP JUMPDEST SWAP1 POP SWAP2 SWAP1 POP JUMP JUMPDEST PUSH32 0x4E487B7100000000000000000000000000000000000000000000000000000000 PUSH1 0x0 MSTORE PUSH1 0x22 PUSH1 0x4 MSTORE PUSH1 0x24 PUSH1 0x0 REVERT JUMPDEST PUSH1 0x0 PUSH1 0x2 DUP3 DIV SWAP1 POP PUSH1 0x1 DUP3 AND DUP1 PUSH2 0x9F6 JUMPI PUSH1 0x7F DUP3 AND SWAP2 POP JUMPDEST PUSH1 0x20 DUP3 LT DUP2 SUB PUSH2 0xA09 JUMPI PUSH2 0xA08 PUSH2 0x9AF JUMP JUMPDEST JUMPDEST POP SWAP2 SWAP1 POP JUMP JUMPDEST PUSH1 0x0 DUP2 SWAP1 POP DUP2 PUSH1 0x0 MSTORE PUSH1 0x20 PUSH1 0x0 KECCAK256 SWAP1 POP SWAP2 SWAP1 POP JUMP JUMPDEST PUSH1 0x0 PUSH1 0x20 PUSH1 0x1F DUP4 ADD DIV SWAP1 POP SWAP2 SWAP1 POP JUMP JUMPDEST PUSH1 0x0 DUP3 DUP3 SHL SWAP1 POP SWAP3 SWAP2 POP POP JUMP JUMPDEST PUSH1 0x0 PUSH1 0x8 DUP4 MUL PUSH2 0xA71 PUSH32 0xFFFFFFFFFFFFFFFFFFFFFFFFFFFFFFFFFFFFFFFFFFFFFFFFFFFFFFFFFFFFFFFF DUP3 PUSH2 0xA34 JUMP JUMPDEST PUSH2 0xA7B DUP7 DUP4 PUSH2 0xA34 JUMP JUMPDEST SWAP6 POP DUP1 NOT DUP5 AND SWAP4 POP DUP1 DUP7 AND DUP5 OR SWAP3 POP POP POP SWAP4 SWAP3 POP POP POP JUMP JUMPDEST PUSH1 0x0 DUP2 SWAP1 POP SWAP2 SWAP1 POP JUMP JUMPDEST PUSH1 0x0 PUSH2 0xAB8 PUSH2 0xAB3 PUSH2 0xAAE DUP5 PUSH2 0x747 JUMP JUMPDEST PUSH2 0xA93 JUMP JUMPDEST PUSH2 0x747 JUMP JUMPDEST SWAP1 POP SWAP2 SWAP1 POP JUMP JUMPDEST PUSH1 0x0 DUP2 SWAP1 POP SWAP2 SWAP1 POP JUMP JUMPDEST PUSH2 0xAD2 DUP4 PUSH2 0xA9D JUMP JUMPDEST PUSH2 0xAE6 PUSH2 0xADE DUP3 PUSH2 0xABF JUMP JUMPDEST DUP5 DUP5 SLOAD PUSH2 0xA41 JUMP JUMPDEST DUP3 SSTORE POP POP POP POP JUMP JUMPDEST PUSH1 0x0 SWAP1 JUMP JUMPDEST PUSH2 0xAFB PUSH2 0xAEE JUMP JUMPDEST PUSH2 0xB06 DUP2 DUP5 DUP5 PUSH2 0xAC9 JUMP JUMPDEST POP POP POP JUMP JUMPDEST JUMPDEST DUP2 DUP2 LT ISZERO PUSH2 0xB2A JUMPI PUSH2 0xB1F PUSH1 0x0 DUP3 PUSH2 0xAF3 JUMP JUMPDEST PUSH1 0x1 DUP2 ADD SWAP1 POP PUSH2 0xB0C JUMP JUMPDEST POP POP JUMP JUMPDEST PUSH1 0x1F DUP3 GT ISZERO PUSH2 0xB6F JUMPI PUSH2 0xB40 DUP2 PUSH2 0xA0F JUMP JUMPDEST PUSH2 0xB49 DUP5 PUSH2 0xA24 JUMP JUMPDEST DUP2 ADD PUSH1 0x20 DUP6 LT ISZERO PUSH2 0xB58 JUMPI DUP2 SWAP1 POP JUMPDEST PUSH2 0xB6C PUSH2 0xB64 DUP6 PUSH2 0xA24 JUMP JUMPDEST DUP4 ADD DUP3 PUSH2 0xB0B JUMP JUMPDEST POP POP JUMPDEST POP POP POP JUMP JUMPDEST PUSH1 0x0 DUP3 DUP3 SHR SWAP1 POP SWAP3 SWAP2 POP POP JUMP JUMPDEST PUSH1 0x0 PUSH2 0xB92 PUSH1 0x0 NOT DUP5 PUSH1 0x8 MUL PUSH2 0xB74 JUMP JUMPDEST NOT DUP1 DUP4 AND SWAP2 POP POP SWAP3 SWAP2 POP POP JUMP JUMPDEST PUSH1 0x0 PUSH2 0xBAB DUP4 DUP4 PUSH2 0xB81 JUMP JUMPDEST SWAP2 POP DUP3 PUSH1 0x2 MUL DUP3 OR SWAP1 POP SWAP3 SWAP2 POP POP JUMP JUMPDEST PUSH2 0xBC4 DUP3 PUSH2 0x86E JUMP JUMPDEST PUSH8 0xFFFFFFFFFFFFFFFF DUP2 GT ISZERO PUSH2 0xBDD JUMPI PUSH2 0xBDC PUSH2 0x548 JUMP JUMPDEST JUMPDEST PUSH2 0xBE7 DUP3 SLOAD PUSH2 0x9DE JUMP JUMPDEST PUSH2 0xBF2 DUP3 DUP3 DUP6 PUSH2 0xB2E JUMP JUMPDEST PUSH1 0x0 PUSH1 0x20 SWAP1 POP PUSH1 0x1F DUP4 GT PUSH1 0x1 DUP2 EQ PUSH2 0xC25 JUMPI PUSH1 0x0 DUP5 ISZERO PUSH2 0xC13 JUMPI DUP3 DUP8 ADD MLOAD SWAP1 POP JUMPDEST PUSH2 0xC1D DUP6 DUP3 PUSH2 0xB9F JUMP JUMPDEST DUP7 SSTORE POP PUSH2 0xC85 JUMP JUMPDEST PUSH1 0x1F NOT DUP5 AND PUSH2 0xC33 DUP7 PUSH2 0xA0F JUMP JUMPDEST PUSH1 0x0 JUMPDEST DUP3 DUP2 LT ISZERO PUSH2 0xC5B JUMPI DUP5 DUP10 ADD MLOAD DUP3 SSTORE PUSH1 0x1 DUP3 ADD SWAP2 POP PUSH1 0x20 DUP6 ADD SWAP5 POP PUSH1 0x20 DUP2 ADD SWAP1 POP PUSH2 0xC36 JUMP JUMPDEST DUP7 DUP4 LT ISZERO PUSH2 0xC78 JUMPI DUP5 DUP10 ADD MLOAD PUSH2 0xC74 PUSH1 0x1F DUP10 AND DUP3 PUSH2 0xB81 JUMP JUMPDEST DUP4 SSTORE POP JUMPDEST PUSH1 0x1 PUSH1 0x2 DUP9 MUL ADD DUP9 SSTORE POP POP POP JUMPDEST POP POP POP POP POP POP JUMP JUMPDEST PUSH2 0xC96 DUP2 PUSH2 0x6DC JUMP JUMPDEST DUP3 MSTORE POP POP JUMP JUMPDEST PUSH1 0x0 PUSH1 0x60 DUP3 ADD SWAP1 POP PUSH2 0xCB1 PUSH1 0x0 DUP4 ADD DUP7 PUSH2 0x751 JUMP JUMPDEST DUP2 DUP2 SUB PUSH1 0x20 DUP4 ADD MSTORE PUSH2 0xCC3 DUP2 DUP6 PUSH2 0x8B4 JUMP JUMPDEST SWAP1 POP PUSH2 0xCD2 PUSH1 0x40 DUP4 ADD DUP5 PUSH2 0xC8D JUMP JUMPDEST SWAP5 SWAP4 POP POP POP POP JUMP JUMPDEST PUSH32 0x426F756E747920616D6F756E74206D7573742062652067726561746572207468 PUSH1 0x0 DUP3 ADD MSTORE PUSH32 0x616E203000000000000000000000000000000000000000000000000000000000 PUSH1 0x20 DUP3 ADD MSTORE POP JUMP JUMPDEST PUSH1 0x0 PUSH2 0xD36 PUSH1 0x24 DUP4 PUSH2 0x879 JUMP JUMPDEST SWAP2 POP PUSH2 0xD41 DUP3 PUSH2 0xCDA JUMP JUMPDEST PUSH1 0x40 DUP3 ADD SWAP1 POP SWAP2 SWAP1 POP JUMP JUMPDEST PUSH1 0x0 PUSH1 0x20 DUP3 ADD SWAP1 POP DUP2 DUP2 SUB PUSH1 0x0 DUP4 ADD MSTORE PUSH2 0xD65 DUP2 PUSH2 0xD29 JUMP JUMPDEST SWAP1 POP SWAP2 SWAP1 POP JUMP JUMPDEST PUSH32 0x4E487B7100000000000000000000000000000000000000000000000000000000 PUSH1 0x0 MSTORE PUSH1 0x11 PUSH1 0x4 MSTORE PUSH1 0x24 PUSH1 0x0 REVERT JUMPDEST PUSH1 0x0 PUSH2 0xDA6 DUP3 PUSH2 0x747 JUMP JUMPDEST SWAP2 POP PUSH2 0xDB1 DUP4 PUSH2 0x747 JUMP JUMPDEST SWAP3 POP DUP3 DUP3 ADD SWAP1 POP DUP1 DUP3 GT ISZERO PUSH2 0xDC9 JUMPI PUSH2 0xDC8 PUSH2 0xD6C JUMP JUMPDEST JUMPDEST SWAP3 SWAP2 POP POP JUMP JUMPDEST PUSH32 0x4D7573742073656E642032207361746F7368697320746F207374617274206120 PUSH1 0x0 DUP3 ADD MSTORE PUSH32 0x72657175657374207769746820616E206F776E65642070726F6D707400000000 PUSH1 0x20 DUP3 ADD MSTORE POP JUMP JUMPDEST PUSH1 0x0 PUSH2 0xE2B PUSH1 0x3C DUP4 PUSH2 0x879 JUMP JUMPDEST SWAP2 POP PUSH2 0xE36 DUP3 PUSH2 0xDCF JUMP JUMPDEST PUSH1 0x40 DUP3 ADD SWAP1 POP SWAP2 SWAP1 POP JUMP JUMPDEST PUSH1 0x0 PUSH1 0x20 DUP3 ADD SWAP1 POP DUP2 DUP2 SUB PUSH1 0x0 DUP4 ADD MSTORE PUSH2 0xE5A DUP2 PUSH2 0xE1E JUMP JUMPDEST SWAP1 POP SWAP2 SWAP1 POP JUMP JUMPDEST PUSH32 0x4661696C656420746F2073656E642031207361746F73686920746F2074686520 PUSH1 0x0 DUP3 ADD MSTORE PUSH32 0x70726F6D7074206F776E65720000000000000000000000000000000000000000 PUSH1 0x20 DUP3 ADD MSTORE POP JUMP JUMPDEST PUSH1 0x0 PUSH2 0xEBD PUSH1 0x2C DUP4 PUSH2 0x879 JUMP JUMPDEST SWAP2 POP PUSH2 0xEC8 DUP3 PUSH2 0xE61 JUMP JUMPDEST PUSH1 0x40 DUP3 ADD SWAP1 POP SWAP2 SWAP1 POP JUMP JUMPDEST PUSH1 0x0 PUSH1 0x20 DUP3 ADD SWAP1 POP DUP2 DUP2 SUB PUSH1 0x0 DUP4 ADD MSTORE PUSH2 0xEEC DUP2 PUSH2 0xEB0 JUMP JUMPDEST SWAP1 POP SWAP2 SWAP1 POP JUMP JUMPDEST PUSH1 0x0 PUSH2 0xF0E PUSH2 0xF09 PUSH2 0xF04 DUP5 PUSH2 0x6BC JUMP JUMPDEST PUSH2 0xA93 JUMP JUMPDEST PUSH2 0x6BC JUMP JUMPDEST SWAP1 POP SWAP2 SWAP1 POP JUMP JUMPDEST PUSH1 0x0 PUSH2 0xF20 DUP3 PUSH2 0xEF3 JUMP JUMPDEST SWAP1 POP SWAP2 SWAP1 POP JUMP JUMPDEST PUSH1 0x0 PUSH2 0xF32 DUP3 PUSH2 0xF15 JUMP JUMPDEST SWAP1 POP SWAP2 SWAP1 POP JUMP JUMPDEST PUSH2 0xF42 DUP2 PUSH2 0xF27 JUMP JUMPDEST DUP3 MSTORE POP POP JUMP JUMPDEST PUSH1 0x0 PUSH1 0x60 DUP3 ADD SWAP1 POP PUSH2 0xF5D PUSH1 0x0 DUP4 ADD DUP7 PUSH2 0x751 JUMP JUMPDEST DUP2 DUP2 SUB PUSH1 0x20 DUP4 ADD MSTORE PUSH2 0xF6F DUP2 DUP6 PUSH2 0x8B4 JUMP JUMPDEST SWAP1 POP PUSH2 0xF7E PUSH1 0x40 DUP4 ADD DUP5 PUSH2 0xF39 JUMP JUMPDEST SWAP5 SWAP4 POP POP POP POP JUMP INVALID LOG2 PUSH5 0x6970667358 0x22 SLT KECCAK256 SHL BALANCE 0xF9 SWAP5 DUP15 CREATE BLOBBASEFEE 0xA9 SWAP1 CALL EXP 0xD0 0xED REVERT SWAP15 EQ PUSH22 0xE3CA1E1B126BB5F548B7CB01D6E19A64736F6C634300 ADDMOD SHL STOP CALLER "
        },
        "methodIdentifiers": {
          "postUnblockerBounty()": "1ae5e977",
          "requests(uint256)": "81d12c58",
          "startRequest(string)": "12c4a269",
          "startRequestFromOwnedPrompt(string,address)": "35e8076b",
          "unblockerBountyByAddress(address)": "13f3fb14"
        }
      }
    }
  }
}